:020000040800F2
:10000000F004002001010008E31E0008B1170008F9
:10001000E11E0008290A0008C721000800000000AE
:100020000000000000000000000000006121000846
:100030002B0A0008000000005F210008632100086F
:100040001B0100081B0100081B0100081B01000820
:100050001B0100081B0100081B0100081B01000810
:100060001B0100081B0100081B0100081B01000800
:100070001B0100081B0100081B0100081B010008F0
:100080001B0100081B0100081B0100081B010008E0
:100090001B0100081B0100081B0100081B010008D0
:1000A0001B0100081B0100081B0100081B010008C0
:1000B0001B0100081B0100081B0100081B010008B0
:1000C0001B0100081B0100081B0100081B010008A0
:1000D0001B0100081B0100081B0100081B01000890
:1000E0001B0100081B0100081B010008DFF80CD0F1
:1000F00000F016FC00480047DD390008F00400203D
:100100000648804706480047FEE7FEE7FEE7FEE7B1
:10011000FEE7FEE7FEE7FEE7FEE7FEE7C521000893
:10012000ED000008202A04DB203A21FA02F0002129
:10013000704721FA02F3D040C2F1200291400843F7
:1001400019467047D2B201E000F8012B491EFBD2DC
:1001500070470022F6E710B513460A4604461946D2
:10016000FFF7F0FF204610BD30B5044600200346DF
:1001700000E05B1C934203D2E05CCD5C401BF8D0F6
:1001800030BDF0B480EA0102D40F4200B2EB410F5F
:1001900002D20246084611464A0042D0C30DDDB2E3
:1001A000C1F3C752AD1A202D35DAC1F3160141F45F
:1001B000000204B15242C5F1200602FA06F12A41BA
:1001C0001044B3EBD05F23D0C4B1012DA0EBC350DA
:1001D00009DCF0BC4FF0004202EAC352DBB200F58A
:1001E000000000F0B5B9400000F1807000EBC35092
:1001F000A0F1807040EAD170490009E0490841EA65
:10020000C071A0EBC35000F50000400800EBC350E4
:10021000F0BC00F094B96142012202EB4101001BE5
:10022000F6E7F0BC704781F00041AAE780F000409B
:10023000A7E780EA010210B502F00043400022D097
:100240004A001FD0010E01EB1261C0F35600C2F349
:10025000560240F4000042F40002A0FB0220000419
:100260007F39140400D0401C50EA124001D44000F1
:10027000491EC2B20C0604EBD010401C4008802A74
:1002800002D003E0002010BD20F00100002900DAB8
:100290000020184310BD30B480EA010202F000458E
:1002A00030F0004221F0004013D090B1C30DD40DC6
:1002B000C2F31601C0F31600E41A41F4000140F441
:1002C00000027D34914201D3641C00E04900002CFF
:1002D00002DA30BC002070474FF400000023914246
:1002E00001D3891A034340084FEA4101F7D151B1C4
:1002F000914202D14FF0004105E002D24FF00101DE
:1003000001E06FF0010103EBC450284430BC00F061
:1003100016B9420005D0C0F3C7525242914201DCE7
:100320000020704700EBC15070472DE9FE4F81EA75
:10033000030404F0004421F0004100944FF0000B4E
:1003400023F0004350EA01045ED052EA03045BD07C
:10035000C3F30A54C1F30A552C44A4F2F3340194B4
:10036000A0FB0254C1F3130141F48011C3F3130342
:1003700043F4801301FB024400FB034E840A970AF6
:1003800044EA815447EA8357A4FB076802958D0A23
:1003900005FB07854FEA932C04FB0C542705029DAF
:1003A0004FEA065847EA1637B5EB08056EEB070C1F
:1003B000870E920E47EA811742EA8312A7FB0201D9
:1003C000B6EB0B0164EB00042B0D43EA0C335E1813
:1003D00044EB1C50DA465146E7FB0201C5F3130417
:1003E0004FEA0B3343EA14534FEA0432019C43EAC9
:1003F0000603A4F10C040294009CCDE900B400F0C3
:10040000E4F803B0BDE8F08F00200146F9E7C10F22
:1004100080EAE0700844CA079623002100F098B8EB
:1004200096230022114600F093B820F00040C10D41
:10043000C0F3160040F400007F2901DA0020704765
:10044000962903DCC1F19601C8407047963988406F
:10045000704700F0004230F000400AD0C10D01F5B5
:100460006071C0F3160042EA0151C208400711430F
:10047000704700200146704701F0004330B421F07E
:10048000004150EA010206D00A0DA2F56072C1F3E4
:100490001301002A02DC30BC00207047440F44EAFC
:1004A000C104C100E01830BC00EBC25000F047B8F6
:1004B00030B50B46014600202022012409E021FA34
:1004C00002F59D4205D303FA02F5491B04FA02F531
:1004D0002844151EA2F10102F1DC30BD2DE9F05FC8
:1004E0000546002092469B468846064681464024A3
:1004F0001BE02846414647462246FFF713FE534677
:100500005A46C01A914110D311461846224600F0AF
:1005100019FA2D1A67EB01084F46224601200021E7
:1005200000F010FA17EB00094E41201EA4F101045F
:10053000DFDC484631462A464346BDE8F09F0029A5
:10054000A8BF7047401C490008BF20F00100704759
:1005500010B4B0FA80FC00FA0CF050EA010404BFB9
:1005600010BC704749B1CCF1200421FA04F411FA0F
:100570000CF118BF012121430843A3EB0C01CB1D53
:100580004FEA00614FEA102042BF002010BC7047C4
:1005900000EBC35010440029A4BF10BC7047401C9E
:1005A000490008BF20F0010010BC704710B5141EB0
:1005B00073F1000408DA401C41F1000192185B411C
:1005C0001A4301D120F0010010BD2DE9F04D9246F3
:1005D0009B4611B1B1FA81F202E0B0FA80F220320A
:1005E000904600F0AFF904460F4640EA0A0041EA9F
:1005F0000B0153465A46084313D0114653EA0100F3
:1006000019D0C8F140025046FFF78CFD05460E4652
:1006100050465946424600F095F9084305D001205E
:1006200004E020463946BDE8F08D0020054346EA47
:10063000E0762C4337430A986305E40AA0EB0800F0
:100640000022FD0A44EA47540A3002D50020014640
:10065000E9E7010510196941DDE90845001969411B
:10066000BDE8F04DA2E72DE9FE4F804681EA030088
:10067000C00F0C46009021F0004123F00045B8EB7C
:100680000200A94105D24046214690461C460B4631
:10069000024623F00040104347D0270DC7F30A005D
:1006A000C3F30A510290401A019040286BDAC3F359
:1006B000130040F4801B0098924620B10023D2EB37
:1006C000030A63EB0B0B01985946C0F140025046F8
:1006D00000F038F906460D4650465946019A00F09A
:1006E00040F910EB08006141002487EA115284EAC6
:1006F000E7731A4340D0009A62B3019A012A4FEA85
:10070000075215DC001B61EB02014FF0004202EAC8
:100710000752CDE90042001C41F5801132462B46BC
:10072000FFF753FF03B0BDE8F08F40462146F9E7DD
:10073000001B61EB0201001C41F5801300185B41B6
:100740002018A2F5001747EB030140EAD570B6194F
:100750006D4111E06D084FEA360645EAC0754FEA73
:100760000752001B61EB0201001C41F58011490892
:100770004FEA30000019514132462B4603B0BDE824
:10078000F04FFFF713BF0098012240000023D0EB89
:10079000020263EBE073009821464FEAE074B8EB85
:1007A000000061EB0401E9E783F000435BE781F0BF
:1007B000004158E72DE9F04D81EA030404F0004BB5
:1007C00021F0004514464FF0000A23F0004150EAA2
:1007D000050220D054EA01021DD0C5F30A57024693
:1007E000C5F31303C1F31300C1F30A5640F4801597
:1007F00043F48013A7EB0608101BD64608F2FD3819
:1008000073EB050002D308F1010801E092185B4187
:10081000B8F1000F03DA00200146BDE8F08D00209A
:100820004FF48011064684460EE0171B73EB050754
:1008300005D3121B63EB050306434CEA010C490880
:100840004FEA300092185B4150EA0107EDD152EABD
:10085000030012D082EA040083EA0501084305D0B0
:10086000101BAB4106D20122002306E000224FF00C
:10087000004302E06FF0010253101AEB06004CEB4C
:10088000085110EB0A0041EB0B01BDE8F04DFFF7FA
:100890008DBE70B521F0004303430CD0C1F30A555F
:1008A0000024D5EB040564EB0403D617AD1AB3415D
:1008B00002DB0020014670BD201841EB025170BDE3
:1008C000C1F30A52C1F3130140F2FF3341F4801126
:1008D0009A4202DA00200146704740F233439A42BE
:1008E000A2F2334202DC5242FFF71CBC00F02AB8ED
:1008F00030B5041E71F1000404DB4FF000444042A7
:1009000064EB0101141E73F1000405DB1C464FF07B
:100910000043524263EB0403994208BF904230BD4A
:10092000064C074D06E0E06840F0010394E807003C
:1009300098471034AC42F6D3FFF7DCFB385A000876
:10094000585A0008202A04DB203A00FA02F100205D
:1009500070479140C2F1200320FA03F319439040FD
:100960007047202A06DBCB17203A41FA02F043EA0F
:10097000E07306E041FA02F3D040C2F12002914058
:100980000843194670472DE9F04D00231A461B1AFB
:100990008A4103DB00200146BDE8F08DC1F30A5215
:1009A000C1F3130141F480154FF0000BD10702D1C0
:1009B00000186D41521E0027044640F2FF113846D0
:1009C00001EB620A3E468046024600204FF4801149
:1009D000FFF7A8FBC2197141BB1846EB0100B4EB4D
:1009E000030C75EB000C04D3E41A65EB0005174605
:1009F0000E46241908F101006D4180463428E3DDDC
:100A0000F91946EB0600091BA84103D24FF0FF324B
:100A1000134601E0002213461BEB070046EB0A5188
:100A2000BDE8F04DFFF7C2BDFEE7704772B6FEE7C6
:100A300070B5044600F004F90546601C02D0044875
:100A40000078044400F0FCF8401BA042FAD370BDCB
:100A5000100000202DE9F84FDFF8B8910024A9F12B
:100A6000040B23460F2709F1040AABF1040EC9E079
:100A70000125A5402A40AA427DD1674ED1F804C085
:100A8000ACEB0608B44532D014DCBCF1030F3AD00D
:100A900009DCBCF1000F2AD0BCF1010F1CD0BCF165
:100AA000020F31D11DE0BCF1110F17D0BCF1120FB4
:100AB0002AD119E0B8F5881F19D006DCB8F5803FB7
:100AC00015D0B8F5801F1FD111E0B8F5001F0ED06A
:100AD000B8F5041F18D10AE0CB6815E0CB681B1DE0
:100AE00012E0CB6808330FE0CB680C330CE08B6866
:100AF0002BB1012B4FF0080303D0456104E0042320
:100B000002E0056100E00023FF2A01D8064601E06B
:100B100000F104064FEA840501D9A5F12005D6F8B5
:100B2000008007FA05FC28EA0C0803FA05F548EAF4
:100B30000508C6F800804D68ED0062D5374DAE69F6
:100B400046F00106AE61AD6924F0030605F001052B
:100B50000095334D06EB050CDCF80850A607360F60
:100B600007FA06F825EA0805DFF8B880404503D102
:100B70004FF0000817E044E0DFF8AC80404502D1B8
:100B80004FF001080FE0DFF8A480404502D14FF09C
:100B9000020808E0DFF89880404502D14FF00308D2
:100BA00001E04FF0040808FA06F848EA0508CCF816
:100BB00008804D68D9F80060ED024D4601D5164316
:100BC00000E096432E604D68DAF80060AD025546AD
:100BD00001D5164300E096432E604D68DBF80060B7
:100BE000AD035D4601D5164300E096432E604D6887
:100BF000DEF80060ED03754601D5164300E096432C
:100C00002E60641C0D682A46E5407FF431AFBDE8D4
:100C1000F88F00000804014000001110001002408D
:100C20000000014000080140000C0140001001409C
:100C3000001401400AB1016170470904FBE700009C
:100C400001488068704700001000002070B5040063
:100C500025D094F83D00002520B984F83C5020466A
:100C600000F07EFA242084F83D002068016821F01D
:100C7000010101602068016841F4004101602068C1
:100C8000016821F40041016000F0B8FB4D4A616841
:100C9000914201D84C4900E04C49884201D20120E0
:100CA00070BD4B492368B0FBF1F15E6826F03F064A
:100CB0000E435E606368934206D94FF496735943BE
:100CC0004FF47A73B1FBF3F12368491C1E6A26F0D6
:100CD0003F06314319626168914210D84900401EB5
:100CE000B0FBF1F2521CC2F30B02042A01D2042021
:100CF00022E0B0FBF1F0401CC0F30B001CE0A26846
:100D0000F2B301EBC10303EB0116431EB3FBF6F391
:100D10005B1C43F480431B0549D092B301EBC10235
:100D200002EB0111401EB0FBF1F0401CC0F30B00C0
:100D300040F4804040F400402168CA694CF6FF73DB
:100D40009A431043C861D4E9071001432068026840
:100D500022F0C00211430160D4E90301014320687D
:100D6000826848F2FF339A4311438160D4E9050158
:100D700008432168CA6822F0FF021043C86001E0FE
:100D80000EE016E02068016841F001010160256471
:100D9000202084F83D00256384F83E50002070BD7B
:100DA00001EB4106431EB3FBF6F35B1CB3E70120E6
:100DB000C2E701EB4101401EB0FBF1F0401CC0F363
:100DC0000B00B7E7A086010080841E0000093D00EB
:100DD00040420F002DE9FF4F83B00025DDE9107977
:100DE0009A4693460446DDF848800095FFF728FFB1
:100DF000064694F83D0020287CD119230122884919
:100E00002046009600F0EAFD0028F5D194F83C0059
:100E100001286FD0012084F83C0020680168C907D0
:100E200003D1016841F0010101602068016821F4EB
:100E300000610160222084F83D00402084F83E00DB
:100E400025646762A4F82A90608D20857548E06269
:100E5000CDE9008653465A462046049900F0C0FC6E
:100E600000287CD1208DDFF8C091202768B10128AF
:100E700014D00228206801681ED041F4806101600E
:100E80002068416980690090BCE0206841698169FF
:100E90000091016841F400710160B3E020680168CD
:100EA00021F48061016072B6206841698169009116
:100EB000016841F400710AE041F40061016072B61A
:100EC0002068416981690091016821F480610160B5
:100ED00062B697E0032865D801280CD00228434663
:100EE0004FF000024946204600960BD000F076FDF8
:100EF000A8BB0CE091E032464146204600F014FECB
:100F000068BB72E000F06AFD48BB72B633E020684F
:100F1000016821F48061016072B620680069616A2D
:100F20000870606A401C6062208D401E2085608DC4
:100F3000401E60853D4846F2A8110068B0FBF1F004
:100F4000C0EBC00000EB80000090401E009007D076
:100F500020684069C04340070DD50098F5E727E0B9
:100F600044F8305F6773A573206940F0200020616A
:100F700062B625731CE02068016841F400710160CD
:100F800020680069616A0870606A401C6062218D97
:100F9000491E2185618D491E618562B621680969F6
:100FA000017026E032464146204600F0BDFD18B1F2
:100FB000012007B0BDE8F08F20680069616A087001
:100FC000606A401C6062208D401E81B22185608D68
:100FD000401E608520684269D243520712D403291B
:100FE00003D1016821F48061016020680069616AB1
:100FF0000870606A401C6062208D401E2085608DF4
:10100000401E6085208D00287FF464AF84F83D7019
:1010100084F83E5084F83C50CBE70220C9E700003A
:10102000020010000000FFFF040001001C0000206F
:101030002DE9FF4F83B09A46DDE9119793460446A8
:10104000DDF84080FFF7FCFD054694F83D002028C0
:101050007FD11923012240492046009500F0BEFCB3
:10106000002876D194F83C00012872D0012084F841
:101070003C0020680168C90703D1016841F0010103
:1010800001602068016821F400610160212084F87A
:101090003D00402084F83E0000262664C4F82480E9
:1010A000A4F82A90608D20852C48E062CDE9007577
:1010B00053465A462046049900F010FC70B930E0BF
:1010C0002A463946204600F067FD58B1206C0428B6
:1010D00004D12068016841F400710160012007B06B
:1010E000BDE8F08F606A216800780861606A401C82
:1010F0006062218D491E89B22185628D521E6285F2
:1011000022685369DB435B070BD469B10078106137
:10111000606A401C6062208D401E2085608D401EEC
:101120006085208D0028CBD12A463946204600F024
:1011300029FC0028CAD154F83D0B016841F4007124
:101140000160202004F81E09E67766770020C6E7D4
:10115000FFE70220C3E70000020010000000FFFFCD
:1011600010B586B0002100910191029103910068B1
:101170000F4988421AD10F4CA06940F00800A061C5
:10118000A069694600F008000490C0200090122079
:101190000190032003900848FFF75CFCE06940F4ED
:1011A0000010E061E06900F40010049006B010BD8A
:1011B0000054004000100240000C014002488168C9
:1011C000027811448160704710000020074810B574
:1011D000016841F010010160032000F067F8002071
:1011E00000F006F800F024F8002010BD00200240B6
:1011F00070B50D4D04464FF47A712878B1FBF0F0CC
:101200000A490968B1FBF0F000F0BEFA48B9102CA9
:1012100007D200222146501E00F028F800206C6002
:1012200070BD012070BD0000100000201C000020D7
:101230000C4808B5816941F001018161816901F0C3
:1012400001010091C16941F08051C161C06900F0A4
:10125000805000900448416821F0E06141F0007145
:10126000416008BD0010024000000140F0B40E4B88
:101270001B680C46C3F30223C3F10705042D00D9F4
:101280000425191D072901D2002300E0DB1E0126D9
:1012900006FA05F1491E214099409E40761E1640EF
:1012A0003143F0BC00F0B8BF0CED00E0064900F09F
:1012B000070208684FF6FF03184040EA0220034A7D
:1012C00010430860704700000CED00E00000FA05D4
:1012D0002DE9F0470F46050061D0434E306800F01D
:1012E0000700B84209D2306820F007003843306068
:1012F000306800F00700B84251D128683B4C8107A4
:1013000012D5400703D5606840F4E060606028783B
:10131000000703D5606840F4605060606068A968A9
:1013200020F0F000084360602878C00728D0686883
:10133000012810D02168022810D0890700292EDA50
:10134000616821F0030101436160FFF779FC804689
:1013500041F288390DE021688903EFE78901EDE763
:10136000FFF76EFCA0EB0801494502D90320BDE858
:10137000F0876068696800F00C00B0EB810FEFD176
:10138000306800F00700B8420BD9306820F0070041
:1013900038433060306800F00700B84201D00120C7
:1013A000E5E72878400705D56068E96820F4E06043
:1013B000084360602878000706D56068296920F432
:1013C000605040EAC100606000F028F86168084A97
:1013D000C1F30311515CC840064908600648006823
:1013E000FFF706FF0020C2E7002002400010024085
:1013F000F24600081C0000201400002004480549A3
:1014000000684968044AC1F30221515CC840704732
:101410001C00002000100240024700080E4A5168DC
:101420000E4801F00C03042B11D0082B0FD10C48EF
:10143000C1F38343C903C05C0AD55168084AC1F3AC
:101440004041921E515C054A5043B0FBF1F0704799
:1014500004494843704700000010024000127A001F
:10146000E246000800093D002DE9F84F040070D065
:101470002078C04DC00749D06868C0F381000128BA
:1014800007D06868C0F38100022809D16868C003EA
:1014900006D52868800339D560680028E7D035E094
:1014A0006068B0F5803F0BD010B1B0F5A02F11D01F
:1014B000286820F480302860286820F4802002E02A
:1014C000286840F480302860606890B1FFF7B8FB6E
:1014D00006460AE0286840F480202860F0E700BF54
:1014E000FFF7AEFB801B642873D828688003F7D50C
:1014F0000CE0FFF7A5FB064605E000BFFFF7A0FBE9
:10150000801B6428F0D828688003F7D420789A4E8E
:1015100080074FF001094FF0000839D5686810F0D6
:101520000C0F07D06868C0F38100022809D16868F1
:10153000C00306D42868800714D52069012808D183
:1015400010E02069B0B1C6F80090FFF779FB0746BC
:1015500005E00AE1FFF774FBC01B0228C4D8286825
:101560008007F7D52868616920F0F80040EAC100DB
:1015700028600DE0C6F80080FFF762FB074604E034
:10158000FFF75EFBC01B022823D828688007F7D42A
:10159000207800072CD57948A169D9B1C0F800900E
:1015A000FFF74EFB074604E0FFF74AFBC01B02288B
:1015B0000FD8686A8007F7D571484FF4FA51006870
:1015C000B0FBF1F0009000BF0098411E0091FAD2EC
:1015D0000EE080E0C0F80080FFF732FB074604E031
:1015E000FFF72EFBC01B022875D8686A8007F7D466
:1015F0002078400760D5E8690027C00008D4E86972
:1016000040F08050E861E869012700F080500090C8
:101610005C480168C90513D40168834641F48071B0
:101620000160FFF70DFB824606E000BFFFF708FBF5
:10163000A0EB0A0064284ED8DBF80000C005F5D501
:10164000E06801280AD008B1052813D0286A20F0E4
:1016500001002862286A20F0040002E0286A40F0B5
:1016600001002862E06841F2883B98B1FFF7E8FA90
:1016700082460BE0286A40F004002862EEE700BFD3
:10168000FFF7DEFAA0EB0A0159455AD8286A80070D
:10169000F6D50CE0FFF7D4FA824605E0FFF7D0FA62
:1016A000A0EB0A0159454CD8286A8007F6D41FB12F
:1016B000E86920F08050E861E06988B36968C1F3A7
:1016C0008101022944D00228C6F8608004D0FFF7C7
:1016D000B7FA044638E034E0FFF7B2FA074604E010
:1016E000FFF7AEFAC01B02282BD828688001F7D478
:1016F000206AB0F5803F05D16868A16820F4003009
:1017000008436860D4E908010843696821F474114A
:1017100008436860C6F86090FFF792FA044606E056
:1017200025E000BFFFF78CFA001B022809D82868C3
:101730008001F7D51BE000BFFFF782FA001B0228EB
:1017400002D90320BDE8F88F28688001F4D40EE0A8
:101750000128F7D06868226A00F48031914204D1F0
:10176000616A00F47010884201D00120EAE700208D
:10177000E8E70000001002400000424280044242BC
:101780001C0000200070004010B5401EB0F1807FAA
:1017900001D3012010BD4FF0E02460610F216017DC
:1017A00000F03AFD0020A06107202061002010BD5C
:1017B000FEE701684A69D24352050FD46FF4806294
:1017C0004A61002140F8301F202242738173026970
:1017D00042F004020261017301207047002070474B
:1017E0002DE9F84F0446006889460B9D016898462C
:1017F000174641F4806101602068016841F48071FE
:10180000016000954FF0011B0022594620460A9BBB
:1018100000F0E4F84FF4007A40B120680068C00599
:1018200001D5C4F840A00320BDE8F88F216809F075
:10183000FE0008612B46284920460A9A00F016F956
:10184000F0BB20684169806900902A4620460A99C9
:1018500000F0A2F940B1206C04283AD12068016858
:1018600041F40071016034E0FEB2B8F1010F09D01B
:101870002168380A08612A4620460A9900F08CF946
:101880000028E8D1206806612A4620460A9900F01F
:1018900083F90028DFD12068016841F4807101607C
:1018A00000950022594620460A9B00F097F8002830
:1018B000B3D1216809F0FF0040F00100086100E0A9
:1018C00007E02B46044920460A9A00F0CFF800288A
:1018D000AAD00120A8E70000020001002DE9F8438A
:1018E000044600680D46DDE90897016898461646EB
:1018F00041F4807101604B4600224FF001112046F7
:10190000009700F06BF848B120680068C00502D568
:101910004FF4007020640320BDE8F883216805F0CF
:10192000FE0008613B464A461549204600F09EF8F5
:1019300088B920684169806900903A464946204646
:1019400000F02AF948B1206C042804D1206801680D
:1019500041F4007101600120DEE7F5B2B8F1010F3A
:1019600009D02168300A08613A464946204600F00D
:1019700013F90028E7D1206805610020CCE70000BA
:101980000200010070B516460D4604461EE02046D2
:10199000FFF70FFF08B1012070BD681C16D0FFF7DC
:1019A0004FF9801BA84200D885B920684069C04320
:1019B00040070BD5002044F8300F20216173A0733D
:1019C000216941F0200121612073E4E7206840692A
:1019D000C0434007DBD4002070BD00002DE9F04774
:1019E000984617460D460446C1F30746DDF8209099
:1019F0002AE000BFB8F1FF3F26D0FFF721F9A0EBA6
:101A00000901414502D8B8F1000F1DD12068012E0F
:101A100016D0806925EA00000004000C12D00020D6
:101A2000B84211D1002044F8300F20216173A07317
:101A3000216941F02001216120730120BDE8F08778
:101A40004069E7E70120EBE72068012E0AD08069B2
:101A500025EA00000004000C06D00020B842C9D0DE
:101A60000020EBE74069F3E70120F7E72DE9F047B5
:101A7000984616460D4604464FF000094FF0200ADE
:101A8000C1F3074723E020684069C043400515D4EF
:101A90002068016841F40071016021686FF4806082
:101AA0004861C4F8309084F83DA084F83E90216CE1
:101AB00041F00401216484F83C9021E0701C06D0C0
:101AC000FFF7BEF8A0EB0800B04203D816B1012F13
:101AD0001FD021E02068012F15D0806925EA000081
:101AE0000004000C18D000BF44F8309F84F80DA00B
:101AF00084F80E90216941F02001216184F80C9056
:101B00000120BDE8F087406925EA00000004000CD0
:101B1000EAD12068406901E02068806925EA000078
:101B20000004000CAFD1ECE72DE9F0410025904610
:101B30000E460446202728E04069C043C0060CD466
:101B400054F8301B6FF01000486144F81059677763
:101B5000A577206A2062257714E0FFF771F8A0EBE3
:101B60000800B04200D886B920684069C0434006EA
:101B70000BD544F8305F6773A573206940F02000EF
:101B8000206125730120BDE8F08120684169C943C7
:101B90004906D1D40020F6E770B516460D46044636
:101BA0001EE02046FFF705FE08B1012070BD681C4D
:101BB00016D0FFF745F8801BA84200D885B92068E9
:101BC0004069C04300060BD5002044F8300F2021A7
:101BD0006173A073216941F0200121612073E4E762
:101BE00020684069C0430006DBD4002070BD0000BF
:101BF0002DE9F74F8EB00CA902A8CDE900010BAB7F
:101C000003AA09A907A801F04BFC20B14FF0FF304F
:101C100011B0BDE8F08FBDF80800C0057ED503986F
:101C2000FEF7F5FB6FF01D042146FEF772FB8246BE
:101C30000498FEF7ECFB2146FEF76BFB8146059806
:101C4000FEF7E5FB2146FEF764FB80460698FEF7AB
:101C5000DEFB2146FEF75DFB054601215046FEF7FF
:101C600058FB06464146FEF7E4FA07464FF040416E
:101C70004846FEF7DEFA04462946FEF7DAFA394608
:101C8000FEF77FFAFEF7E5FB00F0B2FF4FF0663B90
:101C90005A463D4BFEF749FBFEF7EEFB0E990860F6
:101CA00001214046FEF735FB41460090FEF7C1FAA0
:101CB000074620464946FEF7BCFA3946FEF7B3FA16
:101CC0004FF07E51FEF75DFAFEF7C3FB07460C4668
:101CD00030464946FEF7ADFA064629460098FEF71B
:101CE000A8FA3146FEF74DFAFEF7B3FB3A46234613
:101CF00001F0C6F95A46244BFEF717FBFEF7BCFB72
:101D00000F99086029460846FEF793FA07464146B0
:101D10000846FEF78EFA0646494600E031E00846DE
:101D2000FEF787FA044651460846FEF782FA214636
:101D3000FEF727FA3146FEF776FA3946FEF773FAD0
:101D4000FEF787FB06460C4641464846FEF771FA09
:101D5000074629465046FEF76CFA3946FEF711FA57
:101D60000121FEF7D6FAFEF774FB3246234601F056
:101D700087F95A46044BFEF7D8FAFEF77DFB109917
:101D80000860002044E7000066A64C4038B568466D
:101D900001F0C8FE10B14FF0FF3038BD782002F0DE
:101DA00093FB10B16FF0010038BD782001F072FE96
:101DB00010B16FF0020038BD642002F039FB10B1A1
:101DC0006FF0030038BD01F061FB10B16FF004004B
:101DD00038BD1648044601F0DDFD0546E01C01F063
:101DE000D9FD45EAC005A01D01F0D4FD45EA8010EB
:101DF00080B201F02BFC10B16FF0050038BD40F24D
:101E0000731001F01BFA10B16FF0060038BD6420AA
:101E100001F0EAFB10B16FF0070038BD012002F0BD
:101E200003FA0028F9D06FF0090038BD4C000020FB
:101E300010B586B0002000900190029003901648E3
:101E4000816941F020018161816901F020010491E3
:101E5000816941F004018161816901F0040104910B
:101E6000816941F00801816180690C4C00F0080033
:101E700004900022C0212046FEF7DCFEC020012194
:101E8000CDE900010320CDE9021069462046FEF7A6
:101E9000E1FD06B010BD0000001002400008014046
:101EA0000D4810B50B4901600C49416000214FF409
:101EB00080428160C0E9031241618161C1610162B8
:101EC000FEF7C4FE002803D0BDE81040FEF7AEBD0B
:101ED00010BD0000005400408C000020801A060055
:101EE000FEE7FEE770B500240021204600F0BCF8B4
:101EF0000025002000F022F96D1CEDB2802DF8D3F2
:101F0000641CE4B2082CEFD370BD00002DE9F04151
:101F10000024124E0746802525FA04F23A4040215B
:101F20003046FEF787FE012280213046FEF782FE12
:101F3000002280213046FEF77DFE641CE4B2082CAE
:101F4000EAD3012280213046FEF774FE3046BDE818
:101F5000F04100228021FEF76DBE00000008014024
:101F600010B50B4C012240212046FEF763FE0122F2
:101F700080212046FEF75EFE002240212046FEF72B
:101F800059FE20460022BDE810408021FEF752BED7
:101F90000008014010B5094C002240212046FEF700
:101FA00049FE012280212046FEF744FE2046012200
:101FB000BDE810404021FEF73DBE00000008014092
:101FC00010B500204FF47A720021491C9142FCD3D5
:101FD000401C9042F8D3AE2000F09FF8D52000F0CE
:101FE0009CF8802000F099F8A82000F096F83F2097
:101FF00000F093F8D32000F090F8002000F08DF866
:10200000402000F08AF8A12000F087F8C82000F0F6
:1020100084F8DA2000F081F8122000F07EF88120A8
:1020200000F07BF8CF2000F078F8D92000F075F8A8
:10203000F12000F072F8DB2000F06FF8302000F0A3
:102040006CF8A42000F069F8A62000F066F88D2056
:1020500000F063F8142000F060F8AF2000F05DF8A5
:10206000BDE81040FFF73EBF10B50C4640F0B00091
:1020700000F053F8102040EA141000F04EF804F07D
:102080000F00BDE8104000F048B800002DE9F04115
:102090000746CE004000083E801E15464FF0FF3830
:1020A000F1B2C0B2FFF7E0FF1148002400EB0515C4
:1020B0002819A0F5805090F8000E00F03FF8641C3D
:1020C000E4B2082CF4D308EB4700F1B2C0B2FFF73A
:1020D000CBFF00242819A0F5805090F8080E00F0DE
:1020E0002DF8641CE4B2082CF4D3BDE8F0810000A4
:1020F000525300082DE9F04115460E4607460024CC
:1021000006E03019C1B23846FFF7C0FF641CE4B2E4
:102110002A5D002AF5D1BDE8F08110B50446FFF72D
:102120001FFF7820FFF7F2FE0020FFF7EFFE2046AA
:10213000FFF7ECFEBDE81040FFF72CBF10B50446DA
:10214000FFF70EFF7820FFF7E1FE4020FFF7DEFEED
:102150002046FFF7DBFEBDE81040FFF71BBF7047CE
:102160007047FFF72BB830B58FB028216846FDF7D0
:10217000F0FF14210AA8FDF7ECFF01210804CDE9C6
:1021800000100024029402250491CDE907504FF479
:10219000E01009906846FFF767F908B172B6FEE7EC
:1021A0000F20CDE90A054FF48060CDE90C400221F3
:1021B0000AA80E94FFF78CF8002801D072B6FEE74B
:1021C0000FB030BD7047FEE70FB4084B10B504A93F
:1021D00002AA039800F070F9044602A9002000F05A
:1021E00002FD204610BC5DF814FB0000E72B000840
:1021F000490050EAC12018BF04204A0D18BF40F022
:10220000010040F2FF72B2EB515F08BF40F00200E4
:10221000012808BF052070470907090E002804DBC4
:1022200000F1E02080F80014704700F00F0000F18A
:10223000E02080F8141D70472DE9F0414F1E00EB9F
:10224000C7010446D1E9000115461E4637F00602D3
:102250000DD02A463346FEF768F87F1E04EBC7030D
:10226000D3E90023FEF7FFF937F00602F1D1022F80
:1022700025D0042F13D0062F18BFBDE8F0812A46C1
:102280003346FEF752F8D4E90A23FEF7ECF92A4662
:102290003346FEF74AF8D4E90823FEF7E4F92A4664
:1022A0003346FEF742F8D4E90623FEF7DCF92A4666
:1022B0003346FEF73AF8D4E90423FEF7D4F92A4668
:1022C0003346FEF732F8D4E90223FEF7CCF92A466A
:1022D0003346FEF72AF8D4E90023BDE8F041FEF7C3
:1022E000C2B90122FEF7D5BAFEF7BDB900221346E6
:1022F00010461146FEF75EBA024A00201107FEF7AB
:10230000C8BA000001FDFFFF02E008C8121F08C1A3
:10231000002AFAD170477047002001E001C1121F66
:10232000002AFBD170470000014908607047000097
:10233000580000202DE9FF5F82B00021DDE9043064
:10234000020DDDF840B0034318D044F61050A2F25D
:10235000FF3242431514119801281FD0A5EB0B0042
:10236000401C5FEA000A4FF000064E4FDFF838913C
:10237000B046504615D5CAF1000413E01198012467
:102380004AA3012801D16FEA0B010298119AC0E912
:102390000031C0E9024206B0BDE8F09FCBF1000079
:1023A000DFE704460021404A491842EB0450CDE9DA
:1023B000001012E0E00707D032463B46404649464F
:1023C000FDF7B3FF8046894632463B461046194624
:1023D000FDF7ABFF06460F466410002CEAD1DDE99D
:1023E0000401DDE90023BAF1000F06DAFDF79DFFD5
:1023F00042464B46FDF799FF05E0FEF7DBF9424602
:102400004B46FEF7D7F904460E460022284BFEF74E
:102410006FFA03D84FF0FF30014607E00022254B4A
:1024200020463146FEF71FF9FEF74AFA102409E06C
:10243000002C0ADB0A220023FEF750F8039B3032FF
:102440001A55641E50EA0102F2D1641C039AC4F1C9
:1024500011031444119A012A03D0012208430DD11B
:102460000AE0084304D000204FF0110B119072E7EE
:10247000A3EB0B056D1E0DE05B4504DD4FF0000284
:1024800005F1010504E003DA4FF00002A5F10105B2
:10249000002AECD002981199C0E90231C0E9004548
:1024A00079E70000000014400000F03F3000000019
:1024B0000000F0430000E03F2DE9FF4F95B09B4640
:1024C0008946064600250FE2252877D100242746B5
:1024D000F84A0121059400E0044316F8013F203B2F
:1024E00001FA03F01042F7D130782A2811D06FF0AA
:1024F0002F033078A0F13002092A16D8059A44F04B
:10250000020402EB820203EB42021044761C0590A7
:10251000EFE759F8042B0592002A03DA504244F4FD
:102520000054059044F00204761C30782E2816D111
:1025300016F8010F44F004042A280DD06FF02F0282
:102540003078A0F13003092B09D807EB870302EBA1
:102550004303C718761CF3E759F8047B761C3078E0
:102560006C280FD006DC4C2817D068280DD06A28BC
:1025700014D104E0742810D07A280FD10DE044F46F
:1025800000140AE044F4801401E044F4401472782A
:10259000824202D104F58014761C761C30786628BD
:1025A0000BD013DC582877D009DC002875D04528DB
:1025B000F6D04628F4D047281AD19DE118E06328C8
:1025C00035D0642879D0652812D195E1702873D070
:1025D00008DC6728F1D069286FD06E280DD06F28ED
:1025E00006D1B5E073282CD0752875D0782874D022
:1025F0005A46179990476D1C75E1C4F302500228A2
:1026000009D003280DD0D9F8001004280DD00D6092
:1026100009F1040967E1D9F80010EA17C1E900528D
:10262000F6E7D9F800100D80F2E70D70F0E719F821
:10263000041B8DF8001000208DF80100EA460120EF
:1026400003E059F804AB4FF0FF3061074FF0000191
:1026500002D40DE008F101018846B9420FDA804545
:10266000F8DB1AF808100029F4D108E008F101019C
:1026700088468142FADB1AF808100029F6D105983D
:102680005B46A0EB080721463846179A00F094FAFB
:10269000284400EB080507E04DE029E10DE01AF8B9
:1026A000010B5A4617999047B8F10108F7D25B46DB
:1026B00021463846179A13E142E00A220092C4F3F9
:1026C00002524FF0000A022A08D059F804CB032A1C
:1026D0004FEAEC710AD00DE029E02AE009F1070188
:1026E00021F00702F2E802C1914609E00FFA8CFCE2
:1026F0004FEAEC71042A03D14FFA8CFC4FEAEC71DB
:10270000002907DA0A460021DCF1000C61EB020126
:102710002D2202E0220504D52B228DF8042001226F
:1027200003E0E20701D02022F7E7904659E00A21B2
:1027300002E010220DE010214FF0000A00910BE0A2
:1027400010224FF0000A44F004040827009203E02E
:1027500008224FF0000A0092C4F30252022A05D068
:1027600059F804CB0021032A08D009E009F1070138
:1027700021F00702F2E802C1914605E01FFA8CFC45
:10278000042A01D10CF0FF0C4FF00008220728D5D5
:10279000702806D0009B83F0100353EA0A0305D08B
:1027A0000EE040228DF80420012208E05CEA0102DC
:1027B00006D030228DF804208DF8050002229046C4
:1027C000009B83F0080353EA0A030AD15CEA010282
:1027D00001D1620705D530228DF804204FF00108A1
:1027E0007F1E582804D034A003900EA802900DE05C
:1027F00036A0F9E753466046009AFDF76FFE84461F
:102800000398825C0298401E029002705CEA01000C
:10281000F0D1029806A9081A00F1200A600702D533
:1028200024F4803400E00127574502DDA7EB0A00BD
:1028300000E0002000EB0A01009005984144401A96
:102840000590E00306D45B462146179A059800F0F0
:10285000B3F90544002706E001A85A46C05D179960
:1028600090476D1C7F1C4745F6DBE0030CD55B46AB
:102870002146179A059800F09FF9054404E030209E
:102880005A46179990476D1C0099481E00900029E0
:10289000F5DC08E0029802995A460078491C02913A
:1028A000179990476D1CBAF10001AAF1010AF1DCF9
:1028B00065E1000009280100303132333435363704
:1028C000383961626364656600000000303132337C
:1028D000343536373839414243444546000000001C
:1028E00000F058F90544761C307800287FF4ECADF0
:1028F00019B02846BDE8F08F620700D4062709F119
:10290000070222F0070CFCE80223E14603F000482E
:102910005FEA080C02D00FF2702C0DE05FEA045C55
:1029200002D50FF2682C07E05FEAC47C02D00FF2F8
:10293000602C01E0AFF2700C4FF0FF3823F0004341
:10294000CDF850C065280CD006DC452809D04628B3
:102950001DD047283DD13DE0662818D067287ED19C
:1029600038E00021112F01DB112000E0781CCDE9B7
:10297000000106A90EA8FFF7DDFCDDE90F010E9AA4
:1029800003910021009207F1010A04914DE04FF0FC
:1029900000400097CDE9011006A90EA8FFF7CAFC78
:1029A000DDE90F0203920E9B11990022DDF80CA0C5
:1029B0000093049211B9791C00EB010AB7EB0A00ED
:1029C00004D4C0F1FF3007F1010A0490AAEB07001C
:1029D000019044E0012F00DA01270021112F01DDD1
:1029E000112000E03846CDE9000106A90EA8FFF746
:1029F000A1FCDDE90F010E9A0391002104910092E0
:102A0000BA4621070CD40399514500DA8A46BAF137
:102A1000010F05DD009AAAF10101515C302908D0AF
:102A2000B84202DA10F1040F06DA0121CDE90110F3
:102A300015E0AAF10101E9E7002805DC0499014449
:102A40000491AAEB000102E0411C514500DD8A46D9
:102A50000499401A401C01904FF00040029020075A
:102A600004D40198504501DBCDF8048000208DF896
:102A70004F0002980DF14F07B0F1004F25D02B20E9
:102A80000E9002984FF0020800280CDA40420290A3
:102A90002D200E9007E00A210298FDF709FD303144
:102AA000029007F8011DB8F10001A8F10108F2DC5D
:102AB00002980028EFD1791E0E980870307800F047
:102AC000200040F0450007F8020D12A8C01B00F1DD
:102AD00007081498007800B1012000EB0A01019862
:102AE00001EBE07105984144401A401E0590E00357
:102AF00006D45B462146179A059800F05DF8054418
:102B00001498007818B15A46179990476D1CE00345
:102B100024D55B462146179A059800F04DF80544E8
:102B20001CE00498002807DBDDE90301884203DD8F
:102B30000098405C179901E0179930205A46904759
:102B4000049805F10105401C04900198401E019075
:102B500004D12E205A46179990476D1CBAF10001F6
:102B6000AAF1010ADDDC05E017F8010B5A461799B6
:102B700090476D1CB8F10001A8F10108F4DC5B4638
:102B80002146179A0598ABE62D0000002B000000A7
:102B9000200000002DE9F041044600251E4617469E
:102BA000880404D405E039462020B0476D1C641E1B
:102BB000F9D52846BDE8F0812DE9F041044600250D
:102BC0001E469046C80301D5302700E02027880420
:102BD00004D505E041463846B0476D1C641EF9D562
:102BE0002846BDE8F0810A68531C0B6010707047DE
:102BF0002DE9F04D8D4F21F0004A86B005460C4678
:102C0000BA452ADBAAEB070028430AD08848824548
:102C100001DC1AD1CDB106B02846BDE8F04DFFF772
:102C200060BB844A844B2846FDF77FFB07460E466F
:102C3000824A834B28462146FDF777FB06B03A4689
:102C40003346BDE8F04DFDF70EBD0120FFF76CFBEC
:102C500006B0BDE8F04DFFF749BB7A48824542DA3D
:102C6000BAF1795F0BDA2846FFF7C2FA042808BFE9
:102C7000FFF742FB284606B02146BDE8F08D2A4604
:102C80000B461046FDF751FB834602466E480E4642
:102C90000B4606217844FFF7CFFA5A463346FDF734
:102CA00044FB804669488A465A46334604217844A4
:102CB000FFF7C2FA5A463346FDF737FB00223B4680
:102CC000FDF7D1FC02460B4640465146FDF772FD2A
:102CD0002A462346FDF729FB06B02A462346BDE8CF
:102CE000F04DFDF7C0BC284624F0004100223D46CF
:102CF0003B46FDF75CFD4FF0FF32FDF7CAFD06468F
:102D0000024653480F460B4606217844FFF794FAD3
:102D100032463B46FDF709FBCDE900014D483246FE
:102D20003B4604217844FFF787FA32463B46FDF7DD
:102D3000FCFA00222B46FDF796FC834602913046B2
:102D4000394601F0A7FC804643480D46504517DC44
:102D5000DDE900015A46029BFDF72CFD42462B4659
:102D6000FDF7E3FA42462B46FDF77DFC0122FDF715
:102D700090FD304A304BFDF717FD304A304B4CE0A8
:102D80004FF0000A52460B464046FDF76CFCCDE979
:102D9000031052462B4610461946FDF7C6FA324636
:102DA0003B46FDF704FDDDE90332FDF703FD064672
:102DB0000F46DDE900015A46029BFDF7FBFC834606
:102DC0000091012230463946FDF763FD194A1A4B3E
:102DD000FDF7EDFC06460F46012240462946FDF769
:102DE00058FD5A46009BFDF7A0FA32463B46FDF7D8
:102DF000DBFC06460F46012250462946FDF749FDF9
:102E00000E4DDFF858802A464346FDF7D0FC324687
:102E10003B46FDF7CCFC2A464346FDF7C8FC002C98
:102E2000D8BF81F0004106B0BDE8F08D0000F03F52
:102E30000000F07F075C143326A6913C182D445403
:102E4000FB21F93F0000E03FB02C0000C62C000041
:102E50003A2C0000502C00003333EF3FFB21E93FB8
:102E60002DE9F84F04460D4621F0004000917349CA
:102E7000814211DC7249884201DC06D12CB1204626
:102E80002946BDE8F84FFFF72CBA6E48002DCCBF9D
:102E90006D496E49BDE8F88F6D49814211DD6D497C
:102EA0008142D8BF4FF0FF366DDD20462946FFF73F
:102EB0009FF9042808BFFFF71FFA20462946BDE8FE
:102EC000F88F6549654F25F00045814233DD64493F
:102ED000814219DD002632464FF0804320462946C4
:102EE000FDF7C1FB80468A46012220462946FDF7B0
:102EF000D0FC00223B46FDF757FC42465346FDF707
:102F000059FC04460D463EE001260022BA463B46E7
:102F100020462946FDF7A7FB80460F460022534670
:102F200020462946FDF740FC42463B46FDF742FC61
:102F300004460D4627E04B4981421BDDDFF828A1FE
:102F400002260022534620462946FDF7EEF90022CC
:102F50003B46FDF788FB80460F460022534620463D
:102F60002946FDF721FC42463B46FDF723FC04467B
:102F70000D4608E0032622462B4600203B49FDF77C
:102F800019FC04460D4622462B4610461946FDF70D
:102F9000CCF98B46824602460B46FDF7C6F907463A
:102FA0000246334888460B4606217844FFF744F929
:102FB00052465B46FDF7B9F982462E488B463A46A3
:102FC000434605217844FFF737F93A464346FDF773
:102FD000ACF902460B46002E504659460CDAFDF776
:102FE00042FB22462B46FDF7A0F901B022462B46B4
:102FF000BDE8F04FFDF7DBBBFDF735FB22462B4666
:10300000FDF793F91C4A7A4402EBC603D3E9002387
:10301000FDF7CAFB22462B46FDF7C6FB174A7A444A
:1030200002EBC603D3E90023FDF7C1FB009A002A97
:10303000B8BF81F00041BDE8F88F000000001044E7
:103040000000F07F182D4454FB21F93FFB21F9BF0C
:103050000000DC3F0000203E0000F33F0000F03F96
:103060000000E63F008003400000F83F0000F0BF92
:10307000522A0000102A0000AE2900007629000024
:103080002DE9F04D9446CCF1000423F000464CEAC3
:103090000404524F46EAD4749A46884621F000420E
:1030A000BC4206D8454240EA050442EAD474BC4218
:1030B00004D9BDE8F04D6246FFF716B9AAF14055B4
:1030C000A5F17F6555EA0C040BD0022404EAAA742A
:1030D000434DDFF810E144EAD87452EA000B04D003
:1030E0000CE0BDE8F04DFFF7BBBE002C14BF012C77
:1030F000BDE8F08D022C30D0032C32D056EA0C0BF8
:103100000AD0BE4220D1BA4209D126F0804622F030
:1031100080423346114617E000291ADB25E0DFF82C
:10312000C8B0FB44002C04BFDBE90001BDE8F08D12
:10313000012C02BFDBE9000181F00041BDE8F08D08
:10314000022C0AD0032C0CD0BA4212D1B8F1000FD5
:103150000BDA23482549BDE8F08D28462449BDE80F
:10316000F08D28467146BDE8F08D1D482149BDE827
:10317000F08D921B12153C2AC4BF19481D490EDC64
:10318000BAF1000FBEBF12F13C0F0020014606DB72
:103190006246FDF70FFB21F00041FFF761FE002CB6
:1031A00008BFBDE8F08D012C04BF81F00041BDE8EF
:1031B000F08D114A114B022C07D0FDF7F5FA2A4683
:1031C000BDE8F04D0A4BFDF7EFBAFDF7EDFA2A46E0
:1031D000BDE8F04D064BFDF7EABA00000000F07FB5
:1031E000182D4454FB2109C00A290000FB21F9BF16
:1031F000FB210940FB21F93F075C143326A6A13CC3
:1032000008B560B120208DF8000028208DF801005D
:1032100030208DF8020038208DF8030004E0A3224E
:1032200004216846FCF78EFF6A46042140F69E2082
:1032300001F0B8F900F040FE08BD00003EB50446BC
:1032400002208DF80000CA208DF80100E3208DF8DF
:10325000020009208DF803006A460421682001F06D
:10326000A1F9A3208DF80000610609D5C0218DF8D1
:103270000110C8218DF80210C2218DF8031005E05D
:103280008DF801008DF802008DF8030014F4C07F62
:1032900009D0C4218DF80410CC218DF80510C62169
:1032A0008DF8061005E08DF804008DF805008DF806
:1032B00006008DF808008DF807008DF809006A46B1
:1032C0000A2140F6A72001F06DF9A0074FF0D805BC
:1032D00003D020208DF8000001E08DF800506A46F0
:1032E000012140F6B62001F05DF9A00601D50120CC
:1032F00000E0002000F08EF814F4C07F1ED0E0053E
:103300000AD5B2208DF800008B208DF80100B62080
:103310008DF802009B2009E0B0208DF8000080208D
:103320008DF80100B4208DF8020090208DF8030084
:103330006A46042140F6A22001F034F9E1074FF477
:103340000B6022D0F8218DF800106A46012101F0AF
:1033500029F9FA21072000F069FA072000F034FA71
:10336000012000F051FA642000F0F4FA4FF4FA70F2
:1033700000F000FBC821254800F0EEF9282000F0FD
:1033800003FA0A2000F010FA05E08DF800506A46B2
:10339000012101F007F9A00703D5D9208DF800001D
:1033A00001E08DF800506A46012140F23D7001F0C5
:1033B000F9F8600701D5012000E0002000F048F88E
:1033C000E00601D5012000E00020FFF719FF104DB5
:1033D00044F00800688100F06FFD0020A8736006CB
:1033E00001D50620A87314F4C07F02D0A87B801DED
:1033F000A87314F0140F02D0A87B1030A873A00794
:1034000002D0A87B001DA87300203EBD09E3CA02BC
:10341000E00000200EB54FF4976310B106A107C974
:1034200001E008A207CA8DE807006A46092118468C
:1034300001F0B8F80EBD0000B8AAB38DB4980D35F0
:103440005D000000B8AAAAAAB088C3C5C7000000E2
:1034500008B560B1C0208DF80000C2208DF80100D1
:10346000C4208DF80200C6208DF8030004E08B22F2
:1034700004216846FCF766FE6A46042140F698205F
:1034800001F090F800F018FD08BD0000C8234FF4CB
:103490008062024940F6F63000F0B2BB5C4700089B
:1034A0002DE9FF4F89B01746DDE9165200244D4E35
:1034B000884681462C80A246B07B694600F062FCBB
:1034C0004FF0FF3B18B158460DB0BDE8F08F708942
:1034D00010F0140F3CD0009909BA21F0FF039DF8B9
:1034E00003100B433B6001991B1409BA21F0FF0242
:1034F0009DF807105B430A437A6002999DF80B40E0
:1035000009BA21F0FF012143B960039C091424BAD0
:1035100024F0FF0C9DF80F4012144CEA040CC7F87D
:103520000CC04FEA2C47494302FB023207FB07114C
:1035300011441024A1F17061B1F1007F04D900F0B1
:10354000BBFCA5F800A0BEE7298841F48071298062
:103550004206694611D50A19A41D13885BBAA8F85A
:10356000003053885BBAA8F80230928852BAA8F8A3
:1035700004202A8842F008022A8010F4C07F11D06B
:103580000A19A41D13885BBAA9F8003053885BBAE6
:10359000A9F80230928852BAA9F804202A8842F089
:1035A00070022A80800716D00C44E07800F0C00535
:1035B00000F03F016078C00706D0C80801F007019D
:1035C0003268491C02B190476078000703D57168E2
:1035D00009B1A8098847FDF733FB0C990860002062
:1035E00072E70000E000002030B5044613A285B069
:1035F00007CA8DE807004FF0FF35C82C16D8C82041
:10360000B0FBF4F1491E080A8DF80C008DF80D107E
:1036100003AA022140F2162000F0C4FF30B96A4626
:103620000C2140F6C12000F0BDFF10B1284605B0C6
:1036300030BD054884810020F9E70000FEF2ABC4EC
:10364000AAF1DFDFBBAFDFDFE00000202DE9FF41A3
:1036500004463CA004F00303006802903AA000680E
:1036600003903AA006683AA0056802A8C15C8DF8EC
:103670000010C4F3C101425C8DF80120C4F3811233
:10368000805C8DF8020003A8C35C8DF80430415CB7
:103690008DF80510805C8DF806006A46032140F223
:1036A000264000F07FFF4FF0FF37E0BB01AA032167
:1036B00040F22A4000F076FFA8BBCDE90065600724
:1036C0000BD59DF8000040F001008DF800009DF83A
:1036D000040040F001008DF80400A0060BD59DF811
:1036E000010040F001008DF801009DF8050040F058
:1036F00001008DF80500E0050BD59DF8020040F0B3
:1037000001008DF802009DF8060040F001008DF8E0
:1037100006006A4603214FF4886000F043FF10B9A9
:1037200001AA032100E004E040F2314000F03AFF3A
:1037300018B1384604B0BDE8F08106480481002085
:10374000F8E700004CCD6C000CC92C003656760012
:1037500026466600E00000204FF47A7290FBF2F0FB
:1037600008B54843010E8DF80010010C8DF80110CA
:10377000010A8DF802108DF803006A4604214FF407
:10378000AE7000F00FFF08BD0521B0FBF1F008B5E9
:10379000010A8DF800108DF801006A4602214FF4ED
:1037A000AD7000F0FFFE08BD0521B0FBF1F008B5DB
:1037B000010A8DF800108DF801006A4602214FF4CD
:1037C000AC7000F0EFFE08BD08B500218DF80010C8
:1037D000C10702D030218DF80010810705D59DF872
:1037E000001041F00C018DF80010400705D59DF840
:1037F000000040F003008DF800006A4601214FF4FC
:10380000A47000F0CFFE08BD08B560B1042800D94F
:103810000420401E8DF800006A46012140F24F103E
:1038200000F0C0FE08BD0120F3E700002DE9FC41D7
:10383000054640074FF0FF367CD0B1F5C86F79D808
:103840000846FCF7EDFD3E49FCF725FD074601A8BB
:1038500000F04AF99DF80400022806D004280DD093
:1038600008282ED0102865D134E00E213846FCF708
:1038700050FDFCF7DAFD84B2324907E00D213846ED
:10388000FCF747FDFCF7D1FD2F4984B23846FCF721
:10389000D0FCFCF7CAFD210A8DF8001080B28DF82B
:1038A0000140010A8DF802108DF80300E8076C460C
:1038B00020D0224602214FF4EA7000F073FEC8BB0C
:1038C00011E00C213846FCF724FDFCF7AEFD84B274
:1038D0001E49DBE70B213846FCF71BFDFCF7A5FD75
:1038E00084B21B49D2E7A21C02214FF4927000F06F
:1038F00059FEF8B9A8070DD56A4602214FF4EC70BD
:1039000000F050FEB0B9A21C02214FF4947000F0F8
:1039100049FE78B9680710D56A4602214FF4EE7067
:1039200000F040FE30B9A21C02214FF4967000F066
:1039300039FE10B13046BDE8FC810020FBE70000F5
:1039400000004843000040460000C04500004045DC
:103950000000C0440521B0FBF1F008B5010A8DF864
:1039600000108DF801006A4602214FF4EF7000F05C
:1039700019FE08BD0521B0FBF1F008B5010A8DF86C
:1039800000108DF801006A4602214FF4ED7000F03E
:1039900009FE08BD90F90010002902DD4FF000007B
:1039A000704702DA4FF00400704790F901100029C7
:1039B00002DD4FF00100704702DA4FF0050070475A
:1039C00090F90200002802DD4FF00200704702DA91
:1039D0004FF0060070474FF007007047FDF7F6FB09
:1039E000FEF7C1FBFEF724FAFEF75AFA1E4C00BFA1
:1039F000FEF7CCF9E0600028FAD1FEF7E1FA1A4AA6
:103A000002F10801081FFEF7F3F86068FCF721FDDA
:103A100002460B4615A11848FEF7D6FB0121164AAF
:103A20000846FEF767FB2068FCF713FD02461248C4
:103A30000B4612A11030FEF7C7FB0F4A01211032CE
:103A40000220FEF757FBA068FCF703FD02460A4878
:103A50000B460DA12030FEF7B7FB074A01212032AB
:103A60000320FEF747FBCAE700000020706974637B
:103A7000683A252E336600005C0000207961773AB1
:103A8000252D2E3366000000726F6C6C3A252D2EAA
:103A9000336600002DE9F041124C20F001010025B1
:103AA00094F8240010B10020BDE8F081A07A4FF016
:103AB000FF3668B10840277C2074884200D0354624
:103AC00041B1012000F0A8FD00F0F6F938B12774EB
:103AD0003046E9E7207D00B1012000F09DFD284639
:103AE000E2E70000200000200D494A7A42B1012A95
:103AF00008D0022A0FD0032A0FD04FF0FF307047B2
:103B0000022200E004220270C97C11B11106C90D25
:103B10000170002070470822F5E71022F3E700004B
:103B2000200000202DE9F04385B080208DF80C00A6
:103B300047000DF10C08012640462F4C8DE8C100CE
:103B400020683346427D606801782C48FDF770FAA2
:103B50004FF0FF39F0BB6420FCF76AFF00258DF8B9
:103B60000C50CDF80080CDE9016720680123427D2B
:103B7000606801782148FDF75BFA58BBE574FF20C7
:103B800004F80A0F4FF6FF7104F8020C04F8010C58
:103B90006070A180A0712072A67026766576E572AD
:103BA000A572E56025616561A576E576A5834FF48C
:103BB000FA6000F083FB68B9022000F05DFA48B9B2
:103BC0002A2000F0F5FB28B9322000F031FC08B9BA
:103BD000002000E006E0FFF75DFF18B9002000F0CC
:103BE00087FA18B1484605B0BDE8F083002000F020
:103BF0006BFC0020F7E70000200000208C00002074
:103C00002DE9FF4FDFF8A080064689B098F825001F
:103C100015460F464FF0FF39E0BBDFB3002420E02C
:103C2000301B102800DD102080B283463A1901466F
:103C30009246204600F0B6FC60BB03AA59462046D7
:103C400000F000F930BB50465A4603A9FCF78CFA45
:103C500020B16FF001000DB0BDE8F08F04EB0B0058
:103C600084B2B442DCD3280A8DF81C008DF81D50B4
:103C70004FF48072022107A88DE80700D8F80000F1
:103C800044460123427FD8F8040001780748FDF735
:103C9000CFF908B14846DEE7012084F825000C98EA
:103CA000E0840020D7E70000200000208C000020E6
:103CB0002DE9FF5F0546282851D800262F4C0DF12D
:103CC0000C094FF007084FF4807A02277DB10120DC
:103CD00000F034FB20208DF80C004FF0010B012D7B
:103CE0001BD0052D1CD88DF80DB0052022E000203A
:103CF00000F024FBCDE900978DF80C608DF80D8065
:103D0000CDF808A020680123427D606801781C4836
:103D1000FDF78EF918BB26752EE08DF80D60E4E7EF
:103D2000142D03D88DF80D700A2003E003208DF8C0
:103D30000D00142000F03CFB9DF80D10CDE900971C
:103D400008EB81108DF80D00CDF808A02068012344
:103D5000427D606801780A48FDF76AF920B14FF0AA
:103D6000FF3004B0BDE8F09F0820A072267384F8ED
:103D700014B00020FFF78EFE0020F2E720000020A4
:103D80008C0000202DE9FF5F2C4C0646904694F8ED
:103D900024008B464FF0FF3AC0B3A07AB0B30DF1C8
:103DA0000C094FF48077022148468DE88300206893
:103DB0000123027B606801782148FDF70BF828BBDE
:103DC000BDF80C0045BAB54203D2002188F80010B6
:103DD0002AE060684188B5EB510F18D90122CDF86F
:103DE0000090CDE9012721680123CA7C017814489D
:103DF000FCF7F0FF50B99DF80C00C00607D500F0A5
:103E00005BF86FF0010004B0BDE8F09F0CE0CDF866
:103E100000B0CDE9016720680123427B606801782A
:103E20000748FCF7D7FF08B15046ECE7B5FBF6F0C2
:103E3000401E88F800000020E5E700002000002078
:103E40008C0000202DE9FF4115000E464FF0FF3792
:103E500029D0174CA17A31B3010A8DF80C10C0B2E9
:103E60008DF80D0081196068428991421BD80222A9
:103E700003ABCDE900324FF48078CDF8088021689B
:103E80000123CA7E01780B48FDF7D2F858B98DE8B6
:103E9000600120680123027E606801780548FCF714
:103EA00099FF002800D0384604B0BDE8F08100003A
:103EB000200000208C0000202DE9FF476C4C4FF0C3
:103EC000FF3AA07A00287CD000270DF10C088DF86D
:103ED0000C704FF48076012540468DE86100206823
:103EE0002B46427C606801786248FDF7A1F8002803
:103EF00067D1CDF80080CDE90156216860680123C3
:103F00004A7901785B48FDF793F8002859D1CDF83C
:103F10000080CDE901562168606801230A790178A3
:103F20005448FDF785F800284BD194F8240088B355
:103F30000C208DF80C00CDF80080CDE901562068EA
:103F400001230279606801784A48FDF771F800287A
:103F500037D13220FCF76CFDC0208DF80C00A07A20
:103F6000C00702D0E0208DF80C00CDF80080CDE92C
:103F700001562068C14601230279606801783D48F6
:103F8000FDF756F800286ED1607C20B102208DF834
:103F90000C0002E019E08DF80C70CDE90095B046F8
:103FA000CDF8088020684E460123427C6068017885
:103FB0003048FDF73DF820B98DF80C70CDF8088039
:103FC00000E050E0CDE9006543E004208DF80C00EE
:103FD000CDF80080CDE901562068012302796068A0
:103FE00001782448FDF724F8E8BBA07CA0B9A07AAA
:103FF000C00711D05FF060008DF80C00CDF8008094
:10400000CDE90156206801230279606801781948DA
:10401000FDF70EF838BB01E04020EDE73220FCF759
:1040200007FD607C10B18DF80C5001E08DF80C702C
:10403000CDF80080CDE9015620680123427C6068FC
:1040400001780C48FCF7F4FF68B9094810308DE896
:104050006100206801234279606801780548FCF717
:10406000E7FF002800D0504604B0BDE8F08700000C
:10407000200000208C0000207FB51B4C4FF0FF3546
:10408000A17A51B3022806D0042806D008280ED001
:10409000102822D10DE0002000E008208DF80C004F
:1040A000607A9DF80C10B0EBD10F04D006E0102020
:1040B000F4E71820F2E7002004B070BD4FF48072DE
:1040C000012103A88DE8070020680123C2796068F8
:1040D00001780648FCF7ACFF08B12846ECE79DF8EC
:1040E0000C00C0086072E6E7200000208C00002071
:1040F0002DE9FF474A4C0746A07CB84203D1002077
:1041000004B0BDE8F08746484FF0FF3A4FF48075A1
:10411000D0E900104FF0010803AECFB30096CDE90F
:1041200001850A79017801233E48FCF753FE0028F7
:1041300071D19DF80C00CDE9006820F02000A9465F
:104140008DF80C00CDF808902068454601230279CF
:10415000606801783348FCF76BFFE8BB0320FCF78D
:1041600067FC02208DF80C0094F8220010B1822028
:104170008DF80C0094F8230028B19DF80C0040F055
:1041800030008DF80C00CDE90065CDF8089039E0DD
:10419000FFE7CDE9006802950A79017801232148FB
:1041A000FCF718FEC0B9A07AC0079DF80C0002D039
:1041B00040F0200001E020F02000A9468DF80C001E
:1041C00035468DE820032068012302796068017874
:1041D0001448FCF72DFF00E01DE0E0B90320FCF7D8
:1041E00027FC94F8220000B180208DF80C0094F890
:1041F000230028B19DF80C0040F030008DF80C0031
:104200008DE8200320680123C27D6068017805489D
:10421000FCF70EFF08B1504672E7A7746FE7000085
:10422000200000208C0000202DE9FF41214C94F853
:104230002410814224D000264FF48077012530B32A
:1042400094F8250000B3002000F0E6F90020FFF705
:104250004FFFE08C00F0ECF88DF80C6003A88DE8BF
:10426000A10060680123232201781348FCF7E0FED7
:1042700084F82450012000F0CFF900BFFFF71CFEA6
:10428000002004B0BDE8F0814FF0FF30F9E70020D6
:1042900000F0C2F9207C8DF80C0003A88DE8A10085
:1042A00060680123232201780348FCF7C1FE84F8EB
:1042B0002460E3E7200000208C0000207FB51D4C27
:1042C0004FF0FF35A17A69B3FA2809D0B0F5FA7F2B
:1042D00008D0B0F57A7F0FD0B0F5FA6F22D10DE09B
:1042E000002000E008208DF80C00207A9DF80C10CA
:1042F000B0EBD10F04D006E01020F4E71820F2E76D
:10430000002004B070BD4FF48072012103A88DE835
:104310000700206801238279606801780648FCF76D
:1043200087FE08B12846ECE79DF80C00C008207213
:10433000E6E70000200000208C0000207FB51A4C2A
:10434000054694F82300A84202D1002004B070BDB5
:104350000DB1302000E000208DF80C00A07C28B1C9
:104360009DF80C0040F002008DF80C0094F822003B
:1043700028B19DF80C0040F080008DF80C004FF43F
:104380008072012103A88DE8070020680123C27D07
:10439000606801780548FCF74BFE10B14FF0FF3024
:1043A000D4E784F82350D0E7200000208C000020C0
:1043B0007FB51D4C4FF0FF35A17A79B30121BC28A0
:1043C00002D38DF80C1012E0622801D302200CE019
:1043D0002A2801D3032008E0142801D3042004E094
:1043E0000A2801D3052000E006208DF80C00E07AB1
:1043F0009DF80C20904202D1002004B070BD03AAA9
:104400004FF480700092CDE901102068012382787A
:10441000606801780548FCF70BFE08B12846ECE718
:104420009DF80C00E072E7E7200000208C000020DF
:104430002DE9FF41224D04464FF0FF37A87A78B3AB
:1044400095F8240060BB287D4FF47A7648B164B1BA
:10445000282C03D82046FFF72BFC2EE00020FFF786
:1044600027FC042C05D2042406E00020FFF720FCE2
:10447000F9E7B44200D93446B6FBF4F0401E8DF89B
:104480000C004FF48072012103A88DE80700286812
:1044900001234278686801780A48FCF7C9FD18B121
:1044A000384604B0BDE8F0819DF80C00401CB6FB16
:1044B000F0F0E8814008FFF77BFF0020F1E7000003
:1044C000200000208C0000202DE9FF47054610F059
:1044D000700F4FF001074FF0000602D08DF80C70FE
:1044E00006E015B18DF80C6002E040208DF80C005C
:1044F0000DF10C094FF480784946284C8DE8820173
:1045000020680123427D606801782548FCF790FD12
:104510004FF0FF3A80BB9DF80C0020F04000207364
:104520008DF80C60680602D404208DF80C00A806F3
:1045300005D49DF80C0040F002008DF80C00E80650
:1045400005D49DF80C0040F001008DF80C00280700
:1045500005D49DF80C0040F038008DF80C00CDF823
:104560000090CDE9017820680123827D60680178A0
:104570000B48FCF75DFD20B1A672504604B0BDE8C3
:10458000F08725B1082D02D00020FFF7D7FEA572D5
:1045900026753220FCF74CFA0020EFE720000020BF
:1045A0008C0000202DE9FF4115000E464FF0FF372B
:1045B00029D0174CA17A31B3010A8DF80C10C0B282
:1045C0008DF80D0081196068428991421BD8022242
:1045D00003ABCDE900324FF48078CDF80880216834
:1045E0000123CA7E01780B48FCF722FD58B98DE8FB
:1045F000600120680123027E606801780548FCF7AD
:1046000017FD002800D0384604B0BDE8F081000056
:10461000200000208C0000202DE9FF411B4C0346A8
:10462000214694F824C00026D1E90001751E01221C
:104630004FF48077BCF1000F0FD0BBB102238DF88F
:104640000C3003ABCDE900320297427C097801239C
:104650000F48FCF7EDFC78B912E094F80AC0BCF101
:10466000000F09D013B1637C6BB902E08DF80C60C8
:10467000E7E78DF80C20E4E7284604B0BDE8F081B8
:104680009DF80C0060740020F7E700002000002077
:104690008C0000202DE9F04106460F46FCF773F927
:1046A000041E0D4618BF0120284320F00040C0F131
:1046B0007F6000F1E040C00F0ED0301C18BF012019
:1046C000384320F00040C0F17F6000F1E040C00FAF
:1046D00004BF0120FDF728FE20462946BDE8F081F1
:1046E000010202030405060708090A0B0C0D0E0F50
:1046F0001010000000000000000001020304060783
:104700000809000000000102030475191A0C6A234D
:104710001B1C00001F207274433B4138393A006B68
:104720006C376F06246D6E70D00000047600540163
:10473000F7FD0001830000000008000000010018E0
:1047400032000500000020410000D242CDCC4C3E9A
:104750009A99993E3333733FCDCC4C3E00007000A4
:104760000000002400000002000300000065005467
:10477000FFEF0000FA80000B12820001030C30C32F
:104780000E8C8CE914D5400213710F8E3883F88398
:104790003000F883258EF8833000F883FFFFFFFF99
:1047A0000FFEA9D6240004001A8279A10000003C63
:1047B000FFFF00000010000038836FA2003E0330AE
:1047C0004000000002CAE3093E8000002000000013
:1047D000000000004000000060000000000C00002D
:1047E000000C186E000006920A16C0DFFFFF02568A
:1047F000FD8CD377FFE1C496E0C5BEAA000000009F
:10480000FFFF0B2B0000165700000359400000006B
:1048100000001DFA00026C1D000000003FFFDFEBEE
:10482000003EB3B6000D227800002F3C00000000CF
:10483000001942B5000039A20000B365D90E9FC926
:104840001DCF4C3430000000500000003BB67AE829
:104850000064000000C8000000000000100000001C
:104860001000FA921000225E000D229F000100004D
:1048700000320000FF46000063D40000100000007A
:1048800004D6000004CC000004CC0000000010722C
:1048900000000040000000000000000000060002D0
:1048A0000005000700000000006400000000000098
:1048B000000000050005006400200000000000006A
:1048C0000000000000004000000003000000003273
:1048D000F8980000FF650000830F0000FF9BFC00BC
:1048E00000000000000000000000000000000000C8
:1048F00000000000000000000000000000000000B8
:104900000000000000000000000010004000000057
:10491000000000060000B26A000200000001FB83F4
:104920000068000000D9FC007CF1FF83000000005B
:1049300000650000006403E8006400280000002512
:104940000000000016A00000000010000000100091
:10495000002F0000000001F40000100000280000FB
:10496000FFFF4581FFFFFA72000000000000000019
:10497000004400050005BAC6004778A20000000107
:104980000000000000000600000000140000254D9B
:10499000002F706D000005AE000C02D0000000007A
:1049A000000000000000000000000000001B0000EC
:1049B0000000000000000000000000000064000093
:1049C00000080000000000000000000000000000DF
:1049D00000000000000000000000000000000000D7
:1049E00000000000000000000000000000000000C7
:1049F00000000000000000000000000000000000B7
:104A000000000000000000000000000000000000A6
:104A1000000000000000000000000000001B00007B
:104A20000000000000000000000E000E00000AC799
:104A30000004000000000032FFFFFF9C00000B2B71
:104A4000000000020000000100000064FFE500001B
:104A50000000000000000000000000000000000155
:104A600000000000000100000000000000018000C4
:104A70000001800000018000002426D30000000017
:104A800000000000000600100096003C000000003E
:104A90000000000000000000000000000C0A4E684A
:104AA000CDCF770950166759C619CE820000000095
:104AB00000000000000000000000000000000000F6
:104AC0000000000017D78400030000000000000071
:104AD00000000000C7938F9D1E1B1C1900000000E2
:104AE00000000000000000000000000000000000C6
:104AF00000000000020318850000400000000003D1
:104B00000000000300000000000000004000000062
:104B10000000000000000000000000000000000095
:104B20000000000000000000000000000000000085
:104B30000000000000000000000000000000000075
:104B4000677DDF7E72902E554CF6E68800000000EF
:104B5000000000000000000000000000D8DCB4B835
:104B6000B0D8B9ABF3F8FAB3B7BB8E9EAEF132F55D
:104B70001BF1B4B8B08097F1A9DFDFDFAADFDFDF78
:104B8000F2AAC5CDC7A90CC92C97F1A989264666FA
:104B9000B28999A92D557DB0B08AA896365676F17E
:104BA000BAA3B4B280C0B8A89711B28398BAA3F0E0
:104BB000240844106418B2B9B49883F1A329557D30
:104BC000BAB5B1A38393F0002850F5B2B6AA839387
:104BD00028547CF1B9A3829361BAA2DADEDFDB81CB
:104BE0009AB9AEF5606870F1DABAA2DFD9BAA2FA62
:104BF000B9A38292DB31BAA2D9BAA2F8DF85A4D0D8
:104C0000C1BBAD83C2C5C7B8A2DFDFDFBAA0DFDF9B
:104C1000DFD8D8F1B8AAB38DB4980D355DB2B6BA65
:104C2000AF8C96198F9FA70E161EB49AB8AA872C20
:104C3000547CBAA4B08AB691325676B28494A4C891
:104C400008CDD8B8B4B0F19982A82D557D98A80E9A
:104C5000161EA22C547C92A4F02C5078F184A898B3
:104C6000C4CDFCD80DDBA8FC2DF3D9BAA6F8DABA6E
:104C7000A6DED8BAB2B68696A6D0F3C841DAA6C8E0
:104C8000F8D8B0B4B882A892F52C548898F135D9E8
:104C9000F418D8F1A2D0F8F9A884D9C7DFF8F883BE
:104CA000C5DADF69DF83C1D8F40114F1A8824EA808
:104CB00084F311D182F5D992289788F109F41C1C4C
:104CC000D884A8F3C0F9D1D99782F129F40DD8F38B
:104CD000F9F9D1D982F4C203D8DEDF1AD8F1A2FAE9
:104CE000F9A88498D9C7DFF8F8F883C7DADF69DF55
:104CF000F883C3D8F40114F198A8822EA884F31184
:104D0000D182F5D992509788F109F41CD884A8F380
:104D1000C0F8F9D1D99782F149F40DD8F3F9F9D156
:104D2000D982F4C403D8DEDFD8F1AD8898CCA809C5
:104D3000F9D98292A8F57CF1883ACF944A6E98DB33
:104D40006931DAADF2DEF9D88795A8F221D1DAA57A
:104D5000F9F417D9F1AE8ED0C0C3AE82C684C3A811
:104D60008595C8A588F2C0F1F4010EF18E9EA8C603
:104D70003E56F554F18872F40115F19845856EF5AB
:104D80008E9E0488F142985A8E9E068869F4011C12
:104D9000F1981E1108D0F504F11E970202983625ED
:104DA000DBF9D985A5F3C1DA85A5F3DFD88595A808
:104DB000F309DAA5FAD88292A8F578F1881A849FC7
:104DC00026889821DAF41DF3D8879F39D1AFD9DF2F
:104DD000DFFBF9F40CF3D8FAD0F8DAF9F9D0DFD91F
:104DE000F9D8F40BD8F3879F39D1AFD9DFDFF41DA1
:104DF000F3D8FAFCA869F9F9AFD0DADEFAD9F88F5E
:104E00009FA8F1CCF398DB45D9AFDFD0F8D8F18F6C
:104E10009FA8CAF38809DAAF8FCBF8D8F2AD978D87
:104E20000CD9A5DFF9BAA6F3FAF412F2D8950DD190
:104E3000D9BAA6F3FADAA5F2C1BAA6F3DFD8F1BA65
:104E4000B2B68696A6D0CAF349DAA6CBF8D8B0B4E3
:104E5000B8D8AD84F2C0DFF18FCBC3A8B2B68696C6
:104E6000C8C1CBC3F3B0B48898A821DB718D9D7104
:104E7000859521D9ADF2FAD88597A828D9F408D814
:104E8000F28D29DAF405D9F285A4C2F2D8A88D945E
:104E900001D1D9F411F2D88721D8F40AD8F2849834
:104EA000A8C801D1D9F411D8F3A4C8BBAFD0F2DEA1
:104EB000F8F8F8F8F8F8F8F8D8F1B8F6B5B9B08A13
:104EC00095A3DE3CA3D9F8D85CA3D9F8D87CA3D9A4
:104ED000F8D8F8F9D1A5D9DFDAFAD8B18530F7D901
:104EE000DED8F830ADDADED8F2B48C99A32D557D3A
:104EF000A083DFDFDFB591A0F629D9FBD8A0FC297C
:104F0000D9FAD8A0D051D9F8D8FC51D9F9D879D943
:104F1000FBD8A0D0FC79D9FAD8A1F9F9F9F9F9A010
:104F2000DADFDFDFD8A1F8F8F8F8F8ACDEF8ADDEAC
:104F30008393AC2C547CF1A8DFDFDFF69D2CDAA044
:104F4000DFD9FADB2DF8D8A850DAA0D0DED9D0F816
:104F5000F8F8DB55F8D8A878DAA0D0DFD9D0FAF87D
:104F6000F8F8F8DB7DF8D89CA88CF530DB38D9D080
:104F7000DEDFA0D0DEDFD8A848DB58D9DFD0DEA046
:104F8000DFD0DED8A868DB70D9DFDFA0DFDFD8F1A3
:104F9000A888902C547C98A8D05C38D1DAF2AE8CDA
:104FA000DFF9D8B087A8C1C1B188A8C6F9F9DA3647
:104FB000D8A8F9DA36D8A8F9DA36D8A8F9DA36D87E
:104FC000A8F9DA36D8F78D9DADF818DAF2AEDFD849
:104FD000F7ADFA30D9A4DEF9D8F2AEDEFAF983A73C
:104FE000D9C3C5C7F1889BA77AADF7DEDFA4F884E3
:104FF0009408A797F300AEF29819A488C6A39488E2
:10500000F632DFF28393DB09D9F2AADFD8D8AEF803
:10501000F9D1DAF3A4DEA7F1889B7AD8F38494AEB1
:1050200019F9DAAAF1DFD8A881C0C3C5C7A3928352
:10503000F628ADDED9F8D8A350ADD9F8D8A378AD0D
:10504000D9F8D8F8F9D1A1DADEC3C5C7D8A18194BF
:10505000F818F2B089ACC3C5C7F1D8B8B4B0978618
:10506000A8319B069907AB9728889BF00C20144029
:10507000B0B4B8F0A88A9A285078B79BA82951797B
:10508000247059446938644831F1BBAB88002C5412
:105090007CF0B38BB8A804285078F1B088B4972678
:1050A000A85998BBABB38B02264666B0B8F08A9C71
:1050B000A82951798B2951798A2470598B205871EC
:1050C0008A4469388B3940688A6448318B3049603A
:1050D00088F1AC002C547CF08CA804285078F1881E
:1050E0009726A85998AC8C02264666F0899CA82978
:1050F0005179247059446938644831A98809205984
:1051000070AB11384069A8193148608CA83C415CEB
:10511000207C00F187981986A86E767EA999882D43
:10512000557DD8B1B5B9A3DFDFDFAED0DFAAD0DEC1
:10513000F2ABF8F9D9B087C4AAF1DFDFBBAFDFDF8C
:10514000B9D8B1F1A3978E60DFB084F2C8F8F9D96D
:10515000DED89385F14AB183A308B5839A0810B7C6
:105160009F10D8F1B0BAAEB08AC2B2B68E9EF1FB33
:10517000D9F41DD8F9D90CF1D8F8F8AD61D9AEFB46
:10518000D8F40CF1D8F8F8AD19D9AEFBDFD8F41685
:10519000F1D8F8AD8D61D9F4F4ACF59C9C8DDF2B82
:1051A000BAB6AEFAF8F40BD8F1AED0F8AD51DAAE2B
:1051B000FAF8F1D8B9B1B6A3839C08B9B1839AB50E
:1051C000AAC0FD3083B79F10B58B93F20202D1AB1A
:1051D000DADED8F1B080BAABC0C3B284C1C3D8B1F3
:1051E000B9F38BA391B609B4D9ABDEB0879CB9A350
:1051F000DDF1B38B8B8B8B8BB087A3A3A3A3B28B77
:10520000B69BF2A3A3A3A3A3A3A3A3A3A3F1B087D5
:10521000B59AA3F39BA3A3DCBAACDFB9A3A3A3A362
:10522000A3A3A3A3A3A3A3A3A3A3A3A3D8D8D8BB97
:10523000B3B7F1AAF9DAFFD9809AAA28B48098A75F
:1052400020B79787A86688F07951F1902C870CA732
:1052500081976293F071716085940129517990A5CD
:10526000F1284C6C870C95188578A38390284C6C9A
:10527000886CD8F3A28200F210A8921980A2F2D909
:1052800026D8F188A84DD948D896A83980D93CD8D5
:105290009580A839A68698D92CDA87A72CD8A88912
:1052A0009519A980D938D8A88939A980DA3CD8A815
:1052B0002EA83990D90CD8A8953198D90CD8A8091E
:1052C000D9FFD801DAFFD89539A9DA26FFD890A8F6
:1052D0000D8999A810809821DA2ED88999A8318053
:1052E000DA2ED8A886963180DA2ED8A8873180DACF
:1052F0002ED8A88292F34180F1D92ED8A882F31932
:1053000080F1D92ED882ACF3C0A28022F1A62EA7BC
:105310002EA92298A829DAACDEFFD8A2F22AF1A998
:105320002E8292A8F23180A696F1D900AC8C9C0C0A
:1053300030ACDED0DEFFD88C9CACD010ACDE8092DE
:10534000A2F24C82A8F1CAF235F19688A6D900D80B
:10535000F1FF00000000000000000000000000005D
:105360000000000000F800000000000000333000E2
:10537000000000100C06100C0600000000000000E9
:10538000000040C07840C0784000043F04043F045F
:105390000400007088FC08300000001820FF211E67
:1053A0000000F008F000E018000000211C031E219E
:1053B0001E0000F00888700000001E212324192719
:1053C000211010160E000000000000000000000078
:1053D0000000000000E01804020000000007182090
:1053E000400000020418E000000000402018070000
:1053F0000000404080F0804040000202010F0102A6
:105400000200000000F0000000000101011F010186
:105410000100000000000000000080B070000000EB
:105420000000000000000000000000010101010177
:10543000010100000000000000000030300000000A
:1054400000000000000080601804006018060100E1
:10545000000000E010080810E000000F10202010ED
:105460000F00001010F8000000000020203F202056
:1054700000000070080808887000003028242221ED
:1054800030000030088888483000001820202011A3
:105490000E000000C02010F8000000070424243F84
:1054A000240000F80888880808000019212020112D
:1054B0000E0000E0108888180000000F1120201155
:1054C0000E0000380808C83808000000003F00003F
:1054D00000000070880808887000001C222121222A
:1054E0001C0000E010080810E0000000312222112A
:1054F0000F00000000C0C0000000000000303000BD
:10550000000000000080000000000000806000003B
:105510000000000080402010080000010204081074
:105520002000404040404040400004040404040483
:105530000400000810204080000000201008040231
:105540000100007048080808F00000000030360133
:105550000000C030C828E810E000071827242314F2
:105560000B000000C038E0000000203C23020227AE
:10557000382008F8888888700000203F20202011FB
:105580000E00C03008080808380007182020201036
:10559000080008F808080810E000203F202020102C
:1055A0000F0008F88888E8081000203F20202320FA
:1055B000180008F88888E8081000203F2000030041
:1055C0000000C03008080838000007182020221EFC
:1055D000020008F808000008F808203F2101012116
:1055E0003F20000808F8080800000020203F202085
:1055F000000000000808F8080800C08080807F00D4
:10560000000008F888C028180800203F200126382C
:10561000200008F8080000000000203F2020202083
:10562000300008F8F800F8F80800203F003F003F7D
:10563000200008F830C00008F808203F20000718B4
:105640003F00E01008080810E0000F102020201094
:105650000F0008F808080808F000203F21010101A8
:105660000000E01008080810E0000F18242438504B
:105670004F0008F8888888887000203F2000030CBD
:1056800030200070880808083800003820212122C6
:105690001C00180808F8080818000000203F200027
:1056A000000008F808000008F808001F202020204B
:1056B0001F000878880000C83808000007380E016D
:1056C0000000F80800F80008F800033C0700073C59
:1056D0000300081868808068180820302C03032C09
:1056E00030200838C800C83808000000203F2000DB
:1056F000000010080808C83808002038262120209B
:105700001800000000FE020202000000007F40407E
:105710004000000C30C0000000000000000106380E
:10572000C00000020202FE000000004040407F0076
:10573000000000000402020204000000000000005B
:105740000000000000000000000080808080808059
:105750008080000202040000000000000000000041
:105760000000000080808080000000192422222296
:105770003F2008F8008080000000003F1120201129
:105780000E000000008080800000000E112020200C
:105790001100000000808088F800000E1120201009
:1057A0003F200000808080800000001F22222222F3
:1057B0001300008080F0888888180020203F202077
:1057C00000000000808080808000006B949494939F
:1057D000600008F8008080800000203F2100002049
:1057E0003F2000809898000000000020203F2020EB
:1057F0000000000000809898000000C08080807F3A
:10580000000008F8000080808000203F24022D3036
:105810002000000808F8000000000020203F2020A1
:1058200000008080808080808000203F20003F201A
:10583000003F8080008080800000203F2100002009
:105840003F200000808080800000001F202020205A
:105850001F00808000808000000080FFA1202011B8
:105860000E000000008080808000000E112020A02B
:10587000FF80808080008080800020203F212000E9
:1058800001000000808080808000003324242424D4
:105890001900008080E0808000000000001F2020B0
:1058A00000008080000000808000001F2020201069
:1058B0003F20808080000080808000010E3008063C
:1058C000010080800080008080800F300C030C304D
:1058D0000F0000808000808080000020312E0E317B
:1058E0002000808080000080808080818E7018067B
:1058F000010000808080808080000021302C2221E7
:10590000300000000000807C020200000000003F28
:10591000404000000000FF00000000000000FF0009
:1059200000000002027C800000000040403F0000B8
:105930000000000601010202040400000000000053
:105940000000000000000000555555555555C53F55
:105950007D6FEB0312D6D4BF5544880E55C1C93FA5
:105960003B8F68B52882A4BF88B20175E0EF493F3C
:1059700009F7FD0DE13D023F4B2D8A1C273A03C07C
:10598000C88A599CE52A004059018D1B6C06E6BF68
:1059900082922EB1C5B8B33F4FBB610567ACDD3F06
:1059A000182D4454FB21E93F9BF681D20B73EF3F46
:1059B000182D4454FB21F93FE2652F227F2B7A3CBE
:1059C000075C143326A6813CBDCBF07A8807703C77
:1059D000075C143326A6913CC4EB98999999C9BFEA
:1059E000711623FEC671BCBF6D9A74AFF2B0B3BF1F
:1059F0009AFDDE522DDEADBF2F6C6A2C44B4A2BFDF
:105A00000D5555555555D53FFF8300922449C23F4A
:105A10006E204CC5CD45B73F513DD0A0660DB13F7E
:105A2000EB0D76244B7BA93F11DA22E33AAD903F90
:105A30000000000000000000585A0008000000208C
:105A40005C00000008230008B45A00085C00002035
:105A5000940400001823000800000000000000006B
:105A60000000000000000000010000001000000025
:105A70000000000000127A000A47000828470008CA
:105A80000000000000000000000000000000000016
:105A90000000000000000000000000000000000006
:105AA00034470008FF000000FF0000000100000074
:045AB00000000000F2
:04000005080000ED02
:00000001FF
